:060000000A128A11122809
:10000800FE00030E83120313CD000408CE000A0875
:10001800CF007F08D0000A128A112B280A128A11F1
:100028001528D701D801D90183160313B101B201EC
:10003800B301B401B501B601B701B801B901BA01FC
:10004800BB01BC01BD0183010A128A11D22E0B1C0F
:10005800E22986186A28590303196A280230CC0055
:100068004C08D9000130CC004C0883160313B9079B
:10007800BB01BB0A37083F06031D56283408831204
:1000880003135806031D5628831603133108031952
:100098005628B10183120313D90183160313BB0138
:1000A800B90161280230831603133906031D61283C
:1000B800BB01B90183120313D90183125908031D27
:1000C8006A280A128A151D200A128A11831203133C
:1000D800061ACC2859080319CC280130CC004C0842
:1000E80083160313BB070230831203135906031D3B
:1000F800992883160313310803198B28B901B10114
:1001080083120313D90183160313BB01C2280330DA
:100118003B06031DC228B901BB0183120313D90191
:1001280083160313B101B10AC228023083160313E0
:100138003906031DAB2807303B06031DAB28BB015E
:1001480083120313D90183160313B901C228390393
:10015800031DC228BB010A128A15E4240A128A1157
:1001680083160313340883120313CC004C08F900D8
:1001780002300A128A15A6210A128A118312031361
:100188005908031DCC280A128A151D200A128A1143
:1001980083120313861AEE28023059060319EE2833
:1001A800D901D90A0130CC004C0883160313B907CA
:1001B800BB0103303906031DE528B9018312031377
:1001C800D90183125908031DEE280A128A151D2029
:1001D8000A128A118312031306197A295903031D77
:1001E8005629023083160313390603193C29562968
:1001F800013083120313CC004C0883160313B7078E
:100208000A168A1168260A128A11502901308312A7
:100218000313CC004C0883160313B4070A128A157B
:100228006B240A128A115029013083120313CC005F
:100238004C0883160313B3075029013083120313A4
:10024800CC004C0883160313B207502901308312DF
:100258000313CC004C0883160313B8075029013048
:1002680083120313CC004C0883160313BD075029CF
:100278003B08013A0319FC28033A03190A29013AF1
:1002880003191829073A03192129013A03192A29B8
:10029800033A0319332950290A168A11C2260A1269
:1002A8008A117A29023083120313590603196B291C
:1002B8007A2901308312CC004C08D80775290130FF
:1002C8008312CC004C0883160313BF0775298316C5
:1002D80003133B08013A03195D29033A03196329FB
:1002E80075290A128A15F2230A128A118312031336
:1002F8008619E1295903031DC22902308316031305
:1003080039060319A829C2290130B7020A168A1129
:1003180068260A128A11BC29013083160313B40215
:100328000A128A156B240A128A11BC290130831615
:100338000313B302BC290130B202BC290130B80250
:10034800BC290130BD02BC293B08013A03198829A0
:10035800033A03199029013A03199A29073A03190C
:100368009F29013A0319A229033A0319A529BC298F
:100378000A168A11C2260A128A11E129023083124A
:10038800031359060319D229E12901308312D8022F
:10039800DC29013083160313BF02DC2983160313FB
:1003A8003B08013A0319C929033A0319CD29DC2965
:1003B8000A128A15F2230A128A110B100B1D012A40
:1003C800013083120313CC004C08D7077930570249
:1003D800031CFE295908031DFE290A128A15B12299
:1003E8000A128A110A128A157C230A128A118312A8
:1003F8000313D7010B110630810083120313500831
:10040800FF004F088A004E0884004D0E8300FE0E40
:100418007E0E0900831603133903031D342A28307E
:1004280034020318342AA301A30A01300A128A15D8
:1004380002210A128A1145300A168A111B260A124D
:100448008A1183160313A301A30A02300A128A151C
:1004580002210A128A1101300A168A111B26080085
:10046800831603133903031D5A2A28303402031C48
:100478005A2AA301A30A01300A128A1502210A1274
:100488008A1156300A168A111B260A128A118316F7
:100498000313A301A30A02300A128A1502210A12C1
:1004A8008A1101300A168A111B26080002308316A9
:1004B80003133906031D0800A301A30A01300A1219
:1004C8008A1502210A128A11C02B23300A168A11B2
:1004D8001B260A128A1183160313A301A30A0230EA
:1004E8000A128A1502210A128A1101300A168A1183
:1004F8001B26080089300A168A111B260A128A113F
:1005080083160313A301A30A02300A128A150221D3
:100518000A128A11A1300A168A111B260A128A1198
:100528008316031337080A168A11F626080089303D
:100538000A168A111B260A128A1183160313A301AD
:10054800A30A02300A128A1502210A128A11B5304A
:100558000A168A111B260A128A110A168A11DB2525
:100568000A128A118316031336080A168A11F62608
:100578000A128A1128308316031334020318C92A71
:100588000E300A168A111B2608003C308316031306
:1005980034020318D42ACE300A168A111B26080002
:1005A800D2300A168A111B26080089300A168A11C9
:1005B8001B260A128A1183160313A301A30A023009
:1005C8000A128A1502210A128A11BB300A168A11E8
:1005D8001B260A128A11282BDA300A168A111B26C2
:1005E8000A128A11582BD6300A168A111B260A12AB
:1005F8008A11582BC6300A168A111B260A128A112C
:10060800582BDE300A168A111B260A128A11582B1B
:10061800E6300A168A111B260A128A11582BCA308C
:100628000A168A111B260A128A11582BE2300A165A
:100638008A111B260A128A11582B0E300A168A11A3
:100648001B260A128A11582B0A3083160313A0009E
:100658000030A1003308AC00AD012C08A2002D0821
:10066800A3000A128A15B5200A128A1183160313E9
:100678002108003A0319412B212B2008013A0319BC
:10068800F02A033A0319F72A013A0319FE2A073A0E
:100698000319052B013A03190C2B033A0319132BE1
:1006A800013A03191A2B212B0E300A168A111B2620
:1006B800080089300A168A111B260A128A11831625
:1006C8000313A301A30A02300A128A1502210A128F
:1006D8008A11A8300A168A111B260A128A11831653
:1006E800031332080A168A11F626080089300A16FA
:1006F8008A111B260A128A1183160313A301A30A5F
:1007080002300A128A1502210A128A1199300A1631
:100718008A111B260A128A118316031338080A162F
:100728008A11F626080089300A168A111B260A1231
:100738008A1183160313A301A30A02300A128A1529
:1007480002210A128A11AF300A168A111B260A12D0
:100758008A1132300A168A112C270A128A1130306F
:100768000A168A112C270A128A11831603133D08C8
:100778000A168A11F6260800831603133B08003A66
:100788000319692A013A03197E2A033A03199B2A95
:10079800013A0319D92A073A03195D2B013A0319BB
:1007A8007A2B033A0319972BDA2B080008008316D3
:1007B8000313A301A30A01300A128A1502210A129F
:1007C8008A118316031331080319EC2BC130ED2B62
:1007D8000D300A168A111B260A128A110A168A1166
:1007E800DB250A128A118316031336080A168A11A2
:1007F800F6260A128A113A300A168A112C270A128A
:100808008A118316031337080A168A11F6260A1264
:100818008A113A300A168A112C270A128A1183166D
:1008280003133A080A168A11F6260A128A110D309D
:1008380083160313AC002C08A30001300A128A1592
:1008480002210A128A11283083160313340203186E
:100858002F2C0E30382C3C30831603133402031827
:10086800372CCE30382CD2300A168A111B260A12A1
:100878008A1183160313A301A30A02300A128A15E8
:1008880002210A128A11802CDA300A168A111B26D4
:100898000A128A11B02CD6300A168A111B260A129F
:1008A8008A11B02CC6300A168A111B260A128A1120
:1008B800B02CDE300A168A111B260A128A11B02CB7
:1008C800E6300A168A111B260A128A11B02CCA3081
:1008D8000A168A111B260A128A11B02CE2300A164F
:1008E8008A111B260A128A11B02C0E300A168A1198
:1008F8001B260A128A11B02C0A3083160313A00093
:100908000030A1003308AC00AD012C08A2002D086E
:10091800A3000A128A15B5200A128A118316031336
:100928002108003A0319992C792C2008013A031957
:10093800482C033A03194F2C013A0319562C073A4D
:1009480003195D2C013A0319642C033A03196B2C23
:10095800013A0319722C792C043083160313AC0066
:100968002C08A30002300A128A1502210A128A11E1
:1009780020300A168A112C270A128A1183160313AB
:1009880032080A168A11F6260A128A112D300A161A
:100998008A112C270A128A118316031338080A169B
:1009A8008A11F6260A128A112D300A168A112C2766
:1009B8000A128A11831603133D080A168A11F626AD
:1009C8000A128A110D3083160313AC002C08A300F9
:1009D80002300A128A1502210A128A1120300A16D8
:1009E8008A112C270A128A11831603133C080A1647
:1009F8008A11F6260A128A1143300A168A112C2700
:100A0800080005308A000408840A8207003420346C
:100A1800203420342034203420342034203420342E
:100A2800203420342034203420342034203400343E
:100A3800483445344E342034473449344F34203414
:100A480020342034203420342034203420342034FE
:100A580000344334483449344E3448342034533411
:100A6800553441343F342034203420342034203469
:100A780020340034203420342034203420344834C6
:100A880045344C344C344F34203420342034203412
:100A9800203420340034433448344534203444343A
:100AA8004F3420343134323468343F3420342034E5
:100AB800203420342034003443344834453420343E
:100AC80044344F3420343234343468343F3420349E
:100AD8002034203420342034003458344F34413406
:100AE8002034483445344E342034473449344F3464
:100AF8003F34203420342034203400342034473428
:100B080052344F3455345034203430343134203456
:100B1800563458344C34213420342034003443348F
:100B2800483449344E3448342034533455344134ED
:100B380020342034203420342034203400345434F9
:100B4800483441344E3447343A3420340034503435
:100B58004834553454343A34203400344E3447340D
:100B6800413459343A34203400344E3441344D340D
:100B78003A3420340034473449344F343A3420343A
:100B880000345434483455343A3420340034413431
:100B98004C344D3420340034543455344534003406
:100BA8004634523449340034203441344D3400340E
:100BB800203450344D3400344D344F344E340034E6
:100BC800533455344E340034573445345334003498
:100BD8005334413454340034543448345534003494
:100BE8008316031331080319472EA301A30A013002
:100BF8000A128A1502210A128A1167300A168A1106
:100C08001B260A128A1183160313A301A30A0230B2
:100C18000A128A1502210A128A110A168A11412615
:100C28000A128A118316031335080A168A11F62642
:100C38000A128A113A300A168A112C270A128A11C6
:100C4800831603133F080A168A11F6260A128A1118
:100C580028308316031334020318342E0E303D2E29
:100C68003C3083160313340203183C2ECE303D2E3D
:100C7800D2300A168A111B260A128A1106300A1661
:100C88008A111B26080083160313A301A30A013047
:100C98000A128A1502210A128A1112300A168A11BA
:100CA8001B260A128A1183160313A301A30A023012
:100CB8000A128A1502210A128A11B72EB5300A16AD
:100CC8008A111B260A128A11063083160313AC00F8
:100CD8002C08A30002300A128A1502210A128A116E
:100CE8000A168A1141260A128A1183160313350837
:100CF8000A168A11F6260A128A1128308316031357
:100D0800340203188E2E0E300A168A111B260A1278
:100D18008A11C12E3C3083160313340203189B2E0C
:100D2800CE300A168A111B260A128A11C12ED23019
:100D38000A168A111B260A128A11C12EA1300A1618
:100D48008A111B260A128A11831603133F080A16F2
:100D58008A11F6260A128A110F300A168A111B26E2
:100D68000A128A11C12E831603133B08013A03198C
:100D7800622E033A0319A22EC12E0B3083160313D9
:100D8800AC002C08A30002300A128A1502210A12AC
:100D98008A110B300A168A111B26080083160313C2
:100DA8008801831203138801FF308316031386001A
:100DB8008316031788018901831603138514831684
:100DC800031788148030831603139F00453083125D
:100DD80003139F00D70183160313BB018312031368
:100DE800D90183160313B901003083120313D40009
:100DF8000030D5000030D6000030D1000030D200DD
:100E08000030D300023083160313AE002E08BE0054
:100E180083120313D801373083160313AE002E084C
:100E2800BF008113FF3095008B178B15FF3096009C
:100E38000B1081120B1181110108F8390238810059
:100E48008B1606308312031381000A128A150020BC
:100E58000A128A110A128A1553220A128A110A12D0
:100E68008A1569200A128A1183160313A301A30A9B
:100E780001300A128A1502210A128A1134300A1620
:100E88008A111B260A128A1183160313A301A30AC7
:100E980002300A128A1502210A128A1178300A16BB
:100EA8008A111B260A128A11023083160313B00016
:100EB8004530AF00A930AE00AE0B602FAF0B602FEE
:100EC800B00B602F672F073083160313AF007D30F8
:100ED800AE00AE0B6D2FAF0B6D2F831603133708C3
:100EE8003F06031D862F3408831203135806031D7B
:100EF800862F8316031331080319862F83120313D1
:100F08000814882F831208105903031D912F0A1201
:100F18008A110E220A128A11672F023083120313D4
:100F28005906031D9D2F0A128A11F4250A128A11E7
:100F3800672F0A128A11DB230A128A11672F831678
:100F48000313A601A11FAF2FA009A109A00A031925
:100F5800A10AA601A60AA31FBA2FA209A309A20AD9
:100F68000319A30A0130A4002408A606A701A801B2
:100F7800200821040319F12FA501A50AA11BD02FD0
:100F880001300310A00DA10DFF3E031DC52F013038
:100F9800A4002408A507C22F01300310A70DA80D2F
:100FA800FF3E031DD12F21082302031DDD2F20083A
:100FB8002202031CE62F2008A2022108031CA30317
:100FC800A302271401300310A10CA00CFF3E031D3F
:100FD800E72F0130A502031DD02F26080319F92F8A
:100FE800A709A809A70A0319A80A2808A100270819
:040FF800A00008004D
:1010000028308312031394000930831603139300CE
:101010009417080083160313A300A201231C1428AD
:101020002008A1002108A2070310A00D0310A30CA3
:101030002308031D0E282208080000300A168A1112
:101040006D270A128A15FB007B0883160313BA006A
:1010500001300A168A116D270A128A15FB007B08D7
:1010600083160313B70002300A168A116D270A127D
:101070008A15FB007B0883160313B40003300A169D
:101080008A116D270A128A15FB007B088316031349
:10109000B30004300A168A116D270A128A15FB0064
:1010A0007B0883160313B20005300A168A116D27D8
:1010B0000A128A15FB007B0883160313B80006305A
:1010C0000A168A116D27FB007B0883160313BD00E7
:1010D000080000300A128A1554210A128A15831654
:1010E0000313AB002B08BA0001300A128A155421F1
:1010F0000A128A1583160313AB002B08B7000230BF
:101100000A128A1554210A128A1583160313AB009A
:101110002B08B40003300A128A1554210A128A15CA
:1011200083160313AB002B08B30004300A128A1590
:1011300054210A128A1583160313AB002B08B20040
:1011400005300A128A1554210A128A1583160313D0
:10115000AB002B08B80006300A128A1554218316FA
:101160000313AB002B08BD00080083160313A60170
:10117000A31FC128A209A309A20A0319A30AA60151
:10118000A60AA11FC828A009A109A00A0319A10A3B
:10119000200821040319F528A501A50AA11BDC28B4
:1011A00001300310A00DA10DFF3E031DD128013019
:1011B000A4002408A507CE2821082302031DE22845
:1011C00020082202031CEA282008A2022108031C8E
:1011D000A303A30201300310A10CA00CFF3E031DCA
:1011E000EB280130A502031DDC2826080319FD2881
:1011F000A209A309A20A0319A30A2308A10022082D
:10120000A000080083160313A6002603031D2B2944
:1012100023087F3EA4002408A9002908A400043064
:101220000310A40CFF3E031D10292408A500250867
:10123000A70029080F39A4002408A80027080A16C7
:101240008A11BD250A128A158316031328080A1667
:101250008A11BD2508000230831603132606031DDC
:1012600008002308BF3EA4002408A9002908A40000
:1012700004300310A40CFF3E031D39292408A500E7
:101280002508A70029080F39A4002408A80027086A
:101290000A168A11BD250A128A1583160313280817
:1012A0000A168A11BD25080083160313A8000A1622
:1012B0008A1164250A128A15D0300A168A11A125CE
:1012C0000A128A158316031328080A168A11A12503
:1012D0000A128A150A168A115C250A128A15D1305B
:1012E0000A168A11A1250A128A150A168A1198254A
:1012F0000A128A1583160313A4002408AA000A16EA
:101300008A118F250A128A150A168A116C250A126B
:101310008A150F30831603132A05A4000A30A5008E
:101320002508A0002A08A60004300310A60CFF3EE2
:10133000031D952926080A128A150A20831603130D
:101340002407A7002708A90029080800FA000A3086
:10135000F0000030F100790883120313A000A1010E
:101360002008F2002108F3000A168A11B5270A1294
:101370008A15700883120313A2007108A3000A30B3
:10138000F0000030F1007908A400A5012408F20063
:101390002508F3000A128A15FA210A128A15700824
:1013A00083120313A60003300310A60DFF3E031D96
:1013B000D4290310260D2204A7002708FB000A16D3
:1013C0008A114C250A128A15D0300A168A118625F0
:1013D0000A128A157A080A168A1186250A128A15AF
:1013E0007B080A168A1186250A128A150A168A119E
:1013F00054250800F601F11F042AF009F109F00A4A
:101400000319F10AF601F60AF31F0F2AF209F3098C
:10141000F20A0319F30A0130F4007408F606F70122
:10142000F801700871040319462AF501F50AF11B49
:10143000252A01300310F00DF10DFF3E031D1A2A7D
:101440000130F4007408F507172A01300310F70D76
:10145000F80DFF3E031D262A71087302031D322A70
:1014600070087202031C3B2A7008F2027108031C08
:10147000F303F302771401300310F10CF00CFF3E7C
:10148000031D3C2A0130F502031D252A76080319A5
:101490004E2AF709F809F70A0319F80A7808F10043
:1014A0007708F000080000300A168A1194260A1204
:1014B0008A15073083160313A4007D30A300A30B05
:1014C0005F2AA40B5F2A03300A168A11BD250A126F
:1014D0008A15F93083160313A3006E2AA30B6D2A15
:1014E000712A722A03300A168A11BD250A128A153A
:1014F000043083160313A4009130A300A30B7E2AAB
:10150000A40B7E2A03300A168A11BD250A128A15F9
:1015100002300A168A11BD250A128A1502300A16EF
:101520008A11BD250A128A1508300A168A11BD25AE
:101530000A128A1500300A168A11BD250A128A1568
:101540000C300A168A11BD250A128A1500300A16B7
:101550008A11BD250A128A1506300A168A11BD2580
:10156000080000300A168A116D270A128A15FB003E
:101570007B0883160313BA003A08031DCA2A0130F8
:101580000A168A116D270A128A15FB007B0883163A
:101590000313B7003708031DD82A02300A168A1130
:1015A0006D270A128A15FB007B0883160313B4000B
:1015B00034080319DF2A34303406031DF52A0330BA
:1015C0000A168A116D270A128A15FB007B088316FA
:1015D0000313B30004300A168A116D270A128A1504
:1015E000FB007B0883160313B2003203031D032B99
:1015F00005300A168A116D270A128A15FB007B082E
:1016000083160313B8003803031D080006300A16BA
:101610008A116D27FB007B0883160313BD000800A9
:1016200073080319182B720871047004031D2B2B07
:101630000030F0000030F1000030F200080001300E
:10164000F5007508F30701300310F20CF10CF00CF3
:10165000FF3E031D242BFE3072050319462B1F2B62
:101660000130F5007508F3070130F007003003186A
:101670000130F107003003180130F2070130031088
:10168000F20CF10CF00CFF3E031D3F2BFF307205F6
:101690000319552B302B0130F30201300310F00DEC
:1016A000F10DF20DFF3E031D4E2BF11B5B2B0230A3
:1016B000730203184B2B7318632BFF30F0057F3038
:1016C000F105FF30F2050310F30C7308F500F60185
:1016D000F70110300310F50DF60DF70DFF3E031D59
:1016E0006A2B7508F0047608F1047708F204740890
:1016F00003190800F2170800831203139F149F18A0
:101700007F2B831603131E0883120313C800C9011D
:101710001E08CA00CB014A08CB00CA0148084A0487
:10172000F80049084B04F9000A168A11FA250A1232
:101730008A15780883120313D1007908D2007A0839
:10174000D300C030AA007F30AB004430AC00403042
:10175000F8009C30F9004530FA005108FB005208AF
:10176000FC005308FD000A128A152F270A128A1559
:10177000780883120313AD007908AE007A08AF0031
:101780000A128A1577260A128A15831203132A0869
:10179000D4002B08D5002C08D6005408AD005508FD
:1017A000AE005608AF000030AA002030AB00413038
:1017B000AC000A128A1577260A128A1583120313BF
:1017C0002A08BA002B08BB002C08BC000A128A1594
:1017D000E925831203133A08C80048088316031347
:1017E000BC000800831603133F0A031DFC2B3B308B
:1017F000F0007008BF00002C3C303F060319BF0109
:101800002830831203135802031C092C580A031DA5
:10181000172C580A031D112C1730F0007008D8003F
:10182000080018305806031D0800D80108003C3095
:1018300058020318432C28305806031D242C34303A
:10184000F0007008D80008003330580603198619D4
:101850002E2C4730F0007008D800080034305806AD
:1018600003190619382C4830F0007008D800080019
:1018700035305806031D0800061908002930F0000D
:101880007008D80008003C305806031D4C2C483026
:10189000F0007008D8000800473058060319861970
:1018A000562C3330F0007008D80008004830580635
:1018B00003190619602C3430F0007008D8000800B5
:1018C00049305806031D0800061908003D30F00095
:1018D0007008D80008002830831603133402031C54
:1018E000742C340A031D7F2C340A031D792C173005
:1018F000B02C18303406031DD92CB401D92C3C303F
:1019000034020318AB2C28303406031D892C3430E4
:10191000B02C33303406031D932C83120313861925
:10192000932C4730D42C3430831603133406031D14
:101930009F2C8312031306199F2C4830D42C35306A
:10194000831603133406031DD92C831203130619BF
:10195000D92C2930D42C3C303406031DB32C48300C
:10196000FC007C08D82C47303406031DBD2C8312A4
:1019700003138619BD2C3330D42C4830831603133F
:101980003406031DC92C831203130619C92C3430E5
:10199000D42C4930831603133406031DD92C83122B
:1019A00003130619D92C3D30FC007C088316031361
:1019B000B400831603133408FC007C08F9000230DD
:1019C0000A128A15A6210800283083160313340250
:1019D0000318242D3408031DEF2C3430FE2C0C305A
:1019E0003406031DF52C4830FE2C0D303402031C48
:1019F000FC2C3408303EFE2C3408283EF0007008E1
:101A0000B400831203135808031D0B2D3430F0006B
:101A10007008D80008000C305806031D142D4830FB
:101A2000F0007008D80008000D305802031C1E2D6D
:101A30005808303EF0007008D80008005808283ECA
:101A4000F0007008D8000800343083160313340601
:101A5000031D2C2DB4013E2D48303406031D322DBC
:101A60000C303B2D3C3034020318392D3408D83E5D
:101A70003B2D3408D03EF0007008B400343083129F
:101A800003135806031D462DD80108004830580698
:101A9000031D4F2D0C30F0007008D80008003C30BA
:101AA00058020318592D5808D83EF0007008D80085
:101AB00008005808D03EF0007008D80008008316CF
:101AC00003133308031D692D0730F0007008B300BD
:101AD0006F2D08303306031D6F2DB301B30A38088C
:101AE000031D772D0C30F0007008B8007D2D0D30EF
:101AF0003806031D7D2DB801B80A3D0A031D852D4A
:101B00006330F0007008BD00D72D64303D06031D22
:101B1000D72DBD01D72D3D0803390319A62D320855
:101B2000031D972D1C30F0007008B20008001D3016
:101B300032060319A32D1E3032060319A32D1F30C0
:101B40003206031D0800B201B20A08003208031D64
:101B5000AE2D1D30F0007008B20008001E303206B5
:101B60000319B62D1F303206031D0800B201B20A58
:101B700008003208031DC12D1E30F0007008B200AD
:101B800008001F303206031D0800B201B20A080027
:101B90003208031DD02D1F30F0007008B20008007D
:101BA00020303206031D0800B201B20A08003808CE
:101BB000023A03198B2D063A0319B92D023A03197B
:101BC000B92D0F3A0319B92D023A0319B92DC82DB1
:101BD0000800831203133A08BE003B08BF003C080C
:101BE000C00003103F0D400DC1004108C700470869
:101BF000031D032E0030BD000030BC000030BB00D0
:101C00000030BA0008003A08BE003B08BF003C089C
:101C1000C00017300310C00CBF0CBE0CFF3E031DEC
:101C20000A2E3E08C1004108C200BB17FF30BA05AA
:101C3000FF30BB050030BC053A08C3003B08C400B8
:101C40003C08C500C6018E30C702C71F452E470895
:101C5000803A8F3E0318352E0030BD000030BC00A6
:101C60000030BB000030BA00080001300310C60C81
:101C7000C50CC40CC30CFF3E031D362E0130BE0044
:101C80003E08C7070319602E352E18304702031C83
:101C90005D2E0030BD000030BC000030BB000030C5
:101CA000BA0008000130BE000310C30DC40DC50DFD
:101CB000C60DBE0B542E0130C7024708031D522E1D
:101CC000420803196E2EC309C409C509C609C30A0F
:101CD0000319C40A0319C50A0319C60A4608BD0038
:101CE0004508BC004408BB004308BA000800831242
:101CF00003132D08B0002E08B1002F08B200031006
:101D0000310D320DB3003308B8003808031D8F2E93
:101D10000030AA000030AB000030AC0008002A08F8
:101D2000B0002B08B1002C08B2000310310D320DA9
:101D3000B3003308B9003908031DA52E0030AA00EE
:101D40000030AB000030AC0008000030B5000030BF
:101D5000B6000030B70089303907B0003008B8024B
:101D60002D08B0002E08B1002F08B200103003106B
:101D7000B20CB10CB00CFF3E031DB72E3008B300FF
:101D80003308B9002A08B0002B08B1002C08B200B3
:101D900010300310B20CB10CB00CFF3E031DC92E65
:101DA0003008B3003308B9068030B0003008B905F8
:101DB000AE17FF30AD05FF30AE050030AF05AB17F5
:101DC000FF30AA05FF30AB050030AC051830B0007D
:101DD0003008B40001300310B50DB60DB70DFF3E4D
:101DE000031DEB2E2C082F02031DFC2E2B082E02A8
:101DF000031DFC2E2A082D02031C092F2A08AD0200
:101E00002B08031C2B0FAE022C08031C2C0AAF025C
:101E1000351401300310AD0DAE0DAF0DFF3E031DA7
:101E20000A2F0130B402031DEA2E3508F0003608EF
:101E3000F1003708F2003808B0003008F300390824
:101E4000B1003108F4000A128A15102370088312B9
:101E50000313AA007108AB007208AC0008007808F0
:101E600083120313A0007908A1007A08A2000310CE
:101E7000210D220DA3002308A4002408031D472FD1
:101E80000030F8000030F9000030FA0008007B084C
:101E9000A0007C08A1007D08A2000310210D220DE6
:101EA000A3002308A9002908031D5D2F0030F800B6
:101EB0000030F9000030FA00080029087B3EA0003D
:101EC0002008A4077808A0007908A1007A08A200D9
:101ED00010300310A20CA10CA00CFF3E031D692FB3
:101EE0002008A3002308A9007B08A0007C08A1000B
:101EF0007D08A20010300310A20CA10CA00CFF3E24
:101F0000031D7B2F2008A3002308A9068030A00012
:101F10002008A905F917FC17FF30FB05FF30FC0569
:101F20000030FD050030A5000030A6000030A700FD
:101F30000730A0002008A800781CAC2F7B08A5075C
:101F40007C08031103187C0A031DA6077D080311F2
:101F500003187D0A031DA70701300310FA0CF90CC2
:101F6000F80CFF3E031DAD2F01300310FB0DFC0DDF
:101F7000FD0DFF3E031DB52F0130A802031D9C2F50
:101F80000930A0002008A800781CD42F7B08A507E2
:101F90007C08031103187C0A031DA6077D080311A2
:101FA00003187D0A031DA70701300310FA0CF90C72
:101FB000F80CFF3E031DD52F01300310A70CA60C13
:101FC000A50CFF3E031DDD2F0130A802031DC42F09
:101FD0002508F0002608F1002708F2002408A000D8
:101FE0002008F3002908A1002108F4000A128A152C
:101FF00010237008F8007108F9007208FA00080050
:102A880083160313911483128C1D472D8C11080093
:102A980083160313111483128C1D4F2D8C110800FB
:102AA80083160313111583128C1D572D8C110800E2
:102AB80083160313911483128C1D5F2D8C1108004B
:102AC80083160313111483128C1D672D8C110800B3
:102AD80083160313111583128C1D6F2D8C1108009A
:102AE800831603139116111683128C1D782D8C11E1
:102AF800080083160313911583128C1D802D8C11E9
:102B080013080800F00070088312031393008C1D4B
:102B18008B2D8C110800831603139116111683123E
:102B28008C1D932D8C1108008316031391158312A5
:102B38008C1D9B2D8C111308080083160313A0000D
:102B480020088312031393008C1DA82D8C110800F4
:102B5800F300F201731CB42D7008F1007108F2073C
:102B68000310F00D0310F30C7308031DAE2D72084B
:102B7800080083160313A200831203130811831697
:102B8800031322080A168A1194260A168A11831238
:102B980003138815F93083160313A1000000A10B55
:102BA800D22DD62D00008312031388110800283077
:102BB8008316031334020318E62D3408A0002008F6
:102BC800B60008003C3034020318F02D3408D83E13
:102BD800A0002008B60008003D303402031C08009D
:102BE8003408C43EA0002008B6000800FD01F91F03
:102BF800042EF809F909F80A0319F90AFD01FD0A72
:102C08007808F0007908F100F2018E30FB007B08AB
:102C1800F3007D08FC007C08F4000A128A151023D2
:102C28007008F8007108F9007208FA0008008316A5
:102C38000313A700A501A6012508270784000A1287
:102C48008A1105250A168A11003A03190800250871
:102C5800270784000A128A1105250A168A110A16FE
:102C68008A112C270A168A11013083160313A50727
:102C78000318A60A0030A607202E28308312031353
:102C8800580203184E2E580883160313A000200874
:102C9800B50008003C308312580203185B2E580810
:102CA800D83E83160313A0002008B50008003D3065
:102CB80083125802031C08005808C43E83160313E5
:102CC800A0002008B5000800831603133A0A031D64
:102CD800722E3B30FC007C08BA00762E3C303A0657
:102CE8000319BA01370A031D7E2E3B30FC007C080D
:102CF800B700822E3C3037060319B701F9010030BE
:102D08000A128A15A6210A168A1183160313370890
:102D1800FC007C08F90001300A128A15A621080077
:102D280083160313A000201C9D2E8312031308167C
:102D3800A02E83120313081283160313A01CA82EB7
:102D4800831203138816AB2E83120313881283167B
:102D58000313201DB32E831203130817B62E8312F4
:102D68000313081383160313A01DBE2E8312031327
:102D78008817080083120313881308000A128A159B
:102D88005F250A168A11831603133308FC007C0892
:102D9800F90003300A128A15A6210A168A11831629
:102DA80003133208FC007C08F90004300A128A1563
:102DB800A6210A168A11831603133808FC007C081A
:102DC800F90005300A128A15A6210A168A118316F7
:102DD80003133D08FC007C08F90006300A128A1526
:102DE800A621080083160313AB000A30A0000030A8
:102DF800A1002B08A900AA012908A2002A08A300FB
:102E08000A128A11A3270A168A11831603132008A7
:102E1800303E0A168A112C270A168A110A308316A0
:102E28000313A0000030A1002B08A900AA0129085B
:102E3800A2002A08A3000A128A15B5200A168A11C8
:102E4800831603132008303E0A168A112C2708001F
:102E580083160313A40024080F39A1002108A20037
:102E68002408F039A1002108A300831203130815D0
:102E7800831603132308A10004300310A10CFF3E9E
:102E8800031D412F21080A168A1194260A168A1151
:102E9800831203138815033083160313A100A10BB3
:102EA800532F8312031388118316031322080A165B
:102EB8008A1194260A168A1183120313881503307F
:102EC80083160313A100A10B672F83120313881124
:102ED8000800F8000A168A114C250A168A11D03003
:102EE8000A168A1186250A168A1178080A168A117E
:102EF80086250A168A110A168A1144250A168A1185
:102F0800D1300A168A1186250A168A110A168A11DC
:102F18007D250A168A11F4007408FA000A168A1127
:102F280074250A168A110A168A1154250A168A1156
:102F38000F307A05F4000A30F5007508F0007A08B9
:102F4800F60004300310F60CFF3E031DA62F76088A
:102F58000A168A11AC257407F7007708F900790872
:102F68000800F601F31FBF2FF209F309F20A03194B
:102F7800F30AF601F60AF11FC62FF009F109F00A63
:102F88000319F10A700871040319F32FF501F50A02
:102F9800F11BDA2F01300310F00DF10DFF3E031D78
:102FA800CF2F0130F4007408F507CC2F7108730295
:102FB800031DE02F70087202031CE82F7008F2024C
:102FC8007108031CF303F30201300310F10CF00C39
:102FD800FF3E031DE92F0130F502031DDA2F7608A5
:102FE8000319FB2FF209F309F20A0319F30A73080C
:082FF800F1007208F00008006E
:04400E00F2EFFFFFCF
:00000001FF
